:400000000010002011000000BD020000BD02000010B500F05BF9C04670B5194C23688022D20213432360182000F0ECF92268154B13402360144A154B1A601022144B1A607E
:400040001323144A1360144A1360144A1360144A136080221206134B1A6000252560124A124B1A60124A134B1A601349092000F087F9092000F06EF9104B1D6070BDC046E3
:4000800000010B40FFFFFBFF0600008004010B400C0202402002024024020240280202402C02024008010B400E000080000002405D00048000010240150600000C020B4072
:4000C00010B572B600240FE025486200131959000B00411889881A5AC31858880004104300F0E6F80134E4B2012CEDD91C4801000C31343000F0C2F81A4A1B4B1A6003220C
:400100001A4B1A601A4A1B4B1A6099231B041A4A13601A491A4A11601A4A1360C0218902194A1160194A1360194A117806230B43DBB213702122174B1A60174A174B1A60F6
:400140000122174B1A60174B05321A607D32164B1A60164A164B1A60FFF75EFF10BDC046A80F0000030030000000014004000140EEEE00800C00014000500F400000015178
:4001800008500F4010500F4018500F4030500F4000700F40000004400600030008000440000104400801044000030440A40DC0000803044010B5064C2378002B07D1054B6D
:4001C000002B02D0044800E000BF0123237010BD4001002000000000A40F0000084B10B5002B03D00749084800E000BF07480368002B00D110BD064B002BFBD09847F9E7A1
:400200000000000044010020A40F0000C00000200000000010B500F01DFD00F08BFD00F0F9FD00F067FEFF2000F0C4FC002000F031FD002000F09EFD002000F00BFE0E4A1B
:400240000321052000F0F6FA00F04CFA62B600F0DFFA0307FBD5084C237901332371607800F0A8FCA07800F015FD207800F082FDE07800F0EFFDEAE78C010020F0B50025A3
:40028000002711E0BB00C658F3B2FF22964308E06A008A181478A419527822700135013BDBB2002BF4D10137032FEBD9F0BDC04610B50A00002100F06DFE10BD10B500F078
:4002C0003DFE03680C2B00D1FEE7FEE770B50F4E0F4D13E029686B68AC68002202E001C901C30432A242FAD1E868002202E0002102C304328242FAD11035013E002EE9D15B
:4003000000F022FEFFF786FFFEE7C046010000004010000010B500230AE0032B03D89A000949505800E009489900094A885001332F2BF2D9FFF7C4FE8022D205116801236B
:400340000B43136010BDC04600000000BD020000000000201F2318401E3B8340014A13607047C04600E100E01F2318401E3B8340014A13607047C04680E100E001BE704730
:4003800070B504000D001F2802D90020FFF7F6FF1034A40080239B059C4664442068256070BDC04670B504000E00032902D90020FFF7E4FF1F2C02D90020FFF7DFFF03256C
:4003C0002540ED00063500F0B1FDA408A400074B9C46644421680323AB4099430B003100A9401943216000F0A5FD70BD00E400E010B5034B1B7B584300F08EFD10BDC04619
:40040000C4000020F0B557464E46C0B483B0040000F08CFD0190E71E2D2F74D83F4B1B78DBB29C4208D83E4B1B78DBB29A463D4B1B78DBB2994631E03B4B1B78DBB29C4293
:4004400008D83A4B1B78DBB29A46394B1B78DBB2994623E0374B1B78DBB29C4208D8364B1B78DBB29A46354B1B78DBB2994615E0334B1B78DBB29C4208D8324B1B78DBB243
:400480009A46314B1B78DBB2994607E02F4B1B78DBB29A462E4B1B78DBB299462D4BDE5D2F2E09D92A2C07D919222B4B1A60052000F032FD192503E0274B1D683F231D409A
:4004C000B54206D9234BDA5D234B1A60052000F023FD1F4B9C4664442378DBB21F4A13601F4B52461A601F4B4A461A600520FFF77FFFB5420AD2174BDA5D174B1A60052076
:4005000000F00AFD02E00020FFF738FF019800F011FD03B00CBC91469A46F0BDC0F1FF0FC1F1FF0FC2F1FF0FC3F1FF0FC4F1FF0FC5F1FF0FC6F1FF0FC7F1FF0FC8F1FF0F44
:40054000C9F1FF0FCAF1FF0FCBF1FF0FCCF1FF0FCDF1FF0FEC0F00002CFF0B4028FF0B401CFF0B4020FF0B40034B1868C0231B02184000D00120704700010B4010B500F007
:40058000D5FC044A1368C02109020B43136000F0D1FC10BD00010B4010B500F0C7FC08490A68084B1A408024E40122430A600A6813408022120213430B6000F0BBFC10BD2E
:4005C00000010B40FF3FFFFF70B5050000F0AEFC0400FFF7C9FF002803D0FFF7DDFF012100E0002108482840084A1568084B2B40184310601368012901D1FFF7BFFF2000A2
:4006000000F098FC70BDC0460404040010020B40FBFBFBFF10B5244B1B685B0715D5234B1B685B070ED5224BD969042001401F4C22688A432260DA698243DA611B69002B27
:4006400000D098470420FFF7BFFF174B1B685B0518D5164B1B685B0510D5154BD9698022D2001140114802688A430260D969114A0A40DA615B69002B00D098478020C0001F
:40068000FFF7A2FF084B1B685B030CD5074B1B685B0304D5064B9B69002B00D098478020C002FFF791FF10BD10020B40D80000205C010020FFFBFFFF10B50B20FFF74AFEA6
:4006C00010BDC04610B500F03BF810BD10B5044A1368802109060B431360FFF7EDFF10BD0000074010B5064B1B78002B04D1FFF7E9FF0122024B1A70FFF7E8FF10BDC0464C
:400700007C0100200A4B1B68DB050DD5094B1B685B0409D4064B1968074A0A401A601A68802149000A431A600222044B1A6070470000074060000740FFFEFFFF6C00074015
:4007400010B500241C4B1C601C4A1D4B1A601D4A11680C230B4313601B4B1C4A13601C4A14601C491C4A11601C4A13601C4B1C600B20FFF7F9FD03210B20FFF713FE1949B5
:400780000B20FFF7FDFD184B1C60184B1C605222FF32174B1A60174B1C60174B1C60174B1C60174B1C70174B1C70174B1C80174B00221A7010BDC0460000074000080040FB
:4007C00060000740700007400701008000030740040307401000FE0010030740000207400402074065080000C80E0740880E0740480F0740080F0740C80F0740880F07401E
:40080000980100209C010020960100209401002010B50B20FFF7A8FD054B1C78E4B21A781F218A431A700B20FFF794FD200010BD9C01002070B506000D00141E0BD00B20DC
:40084000FFF792FD044B1C60044B1E80044B1D800B20FFF77FFD70BDA0010020A40100209A01002070B5AC4B1B68002B00D09847AA4B1C88AA4B1D68AA4B1E680223FF33E6
:400880001D4242D0A84A13685B005B081360A74B1B789B0620D5A54A137820218B431370117810230B43DBB21370A14B1B68DB060CD4A04B1A78994B1B889A420CD09B4A17
:4008C000117808230B43DBB2137005E0974A117802230B43DBB21370974A1168974B0B4013600023964A1360914A13609549964A116096498A4A1160954A13708A4A136852
:40090000802109060B43136003E1F30602D50022904B1A600A23334200D190E08E4B1B685B0756D58D4B1B68894A1278002A16D0012A47D18A4A1288002A0DD00121894ADA
:400940001160894A12681219DBB213700134844A1388013B138038E0FFF7D4FE35E0834A128893422BD201217E4A1160804A1288934202D2D21A92B200E0002278490A80FE
:40098000072A03D80121724A117014E0082A09D169490A68A020000202430A600021684A116008E064490A688020800102430A600821634A11605F4A13701C0005E0FFF7B2
:4009C000A1FE02E00020FFF7D9FC04225E4B1A6035E0594B1B689B0431D5B3070DD5654B1B680F211940544A1068544B03401360012014E00821012011E0594B19880839C8
:400A000089B219800829F5D8002008E0564B1B681B19524A1268D2B21A70013401390029F4D1002808D1444A1368802109020B4313600022424B1A600C22434B1A60B30773
:400A400046D5EB0615D500233D4A1360384A1360384B1B789C4201D1022300E00A232B40324A11780B4320218B4313700022384B1A706B062AD52D4A117820230B43DBB269
:400A800013702C4B1B781C003B4A1268D20612D5364A1288D31A324A1380384B1A68802149020A431A601968354A0A401A6010221F4B1A6002E00422214B1A600123314A9A
:400AC00013602249164A1160264A1360144B1D60144B1B685B071CD5214B1B88002B0CD0214B1B681B191B78DBB2274A136001341B4A1388013B138002E0FF22224B1A6028
:400B0000224B1B680F221340082BE5D10132204B1A60024B1C8070BD8001002096010020400F0740000E0740000007409C010020880F07409401002060000740FF5FFFFF4D
:400B4000C80F0740ED0F0000C00F0740FF0F000098010020880E0740CC0F074040030740840100206C000740A0010020A40100209A01002008030740640007400402074012
:400B8000FFFFFEFF800E07404002074008020740800F07400004000C014B18607047C046080105400004000C014B18607047C046140105400004000C014B18607047C0465A
:400BC0000C01054070B504000D0000F0AFF9AC40024B1C6000F0AEF970BDC0460800054010B500F0A3F9064A116801230B43136000F0A0F918210120FFF7E4FF10BDC0467B
:400C000000000540014B18607047C0463801054010B50D4C8023DB042360236823600020FFF7B8FF236823600C22084B1A600120FFF7E8FF3122064B1A60FF20FFF7B2FF87
:400C40000020FFF7B7FF10BD00010540240105402801054010B5064B1B78002B04D1FFF7D7FF0122024B1A70FFF7BAFF10BDC046860100200004000C014B18607047C04694
:400C8000480105400004000C014B18607047C046540105400004000C014B18607047C0464C01054070B504000D0000F03FF9AC40024B1C6000F03EF970BDC046080005409E
:400CC00010B500F033F9064A116802230B43136000F030F918210220FFF7E4FF10BDC04600000540014B18607047C0467801054010B50D4C8023DB0423602368236000206F
:400D0000FFF7B8FF236823600C22084B1A600120FFF7E8FF3122064B1A60FF20FFF7B2FF0020FFF7B7FF10BD40010540640105406801054010B5064B1B78002B04D1FFF705
:400D4000D7FF0122024B1A70FFF7BAFF10BDC046870100200004000C014B18607047C046C80105400004000C014B18607047C046D40105400004000C014B18607047C0469E
:400D8000CC01054070B504000D0000F0CFF8AC40024B1C6000F0CEF870BDC0460800054010B500F0C3F8064A116808230B43136000F0C0F818210820FFF7E4FF10BDC0466F
:400DC00000000540014B18607047C046F801054010B50D4C8023DB042360236823600020FFF7B8FF236823600C22084B1A600120FFF7E8FF3122064B1A60FF20FFF7B2FF06
:400E00000020FFF7B7FF10BDC0010540E4010540E801054010B5064B1B78002B04D1FFF7D7FF0122024B1A70FFF7BAFF10BDC046880100200004000C014B18607047C04690
:400E4000880105400004000C014B18607047C046940105400004000C014B18607047C0468C01054070B504000D0000F05FF8AC40024B1C6000F05EF870BDC04608000540DE
:400E800010B500F053F8064A116804230B43136000F050F818210420FFF7E4FF10BDC04600000540014B18607047C046B801054010B50D4C8023DB0423602368236000202B
:400EC000FFF7B8FF236823600C22084B1A600120FFF7E8FF3122064B1A60FF20FFF7B2FF0020FFF7B7FF10BD80010540A4010540A801054010B5064B1B78002B04D1FFF784
:400F0000D7FF0122024B1A70FFF7BAFF10BDC04689010020000000000230800804D0C0460138FDD1C046C046C0467047EFF3108072B6704780F310887047C046014B18686C
:400F40007047C0463C0100200E4B70B500251E000D4CE41AA410A54204D0AB00F35898470135F8E700F05AF8084B00251E00084CE41AA410A54204D0AB00F3589847013542
:400F8000F8E770BD2810000028100000281000003010000003008218934202D019700133FAE770470000000000300F40000400400F400004E280E63056805B01D440D640BA
:400FC0005E208A108B018E809E809F01D6202082251088418D10C80EE201E60C02330F4004400F4007410F4007430F40030405060708090A0B0C0E0F101112131415161758
:4010000018191B1C1D1E1F2021222325262728292A2B2E2F3031323334354300F8B5C046F8BC08BC9E467047DD01000015030000F8B5C046F8BC08BC9E467047B501000049
:4010400050100000C0000020800000006800000000000000010000000000E02EC05D00001800000000366E0104040400000000000000000000000000000000000000000053
:401080000000000000000000000000001A10000000000000000000000000000000000000000000000000000000000000000000000000000000000000000000000000000006
:4010C000000000000000000000000000DC000020000000000000000000000000000000000000000000000000000000000000000000000000000000000000000000000000F4
:4011000000000000000000000000000000000000000000000000000000000000000000000000000000000000000000000000000000000000000000000000000000000000AF
:40114000000000000000000000000000000000000000000000000000000000000000000000000000000000000000000000000000000000000000000000000000000000006F
:40118000000000000000000000000000000000000000000000000000000000000000000000000000000000000000000000000000000000000000000000000000000000002F
:4011C00000000000000000000000000000000000000000000000000000000000000000000000000000000000000000000000000000000000000000000000000000000000EF
:0200000490303A
:02000000563672
:0200000490402A
:200000000000000000000000000000000000000000000000000000000000000000000000E0
:0200000490501A
:0C000000000204C81193110104CD67C96F
:0200000490600A
:0100000001FE
:00000001FF