:400000000010002011000000910200009102000010B500F045F9C04670B5164C23688022D20213432360182001F052FA2268124B13402360114A124B1A602022114B1A6083
:40004000103A114B1A6080221206104B1A60002525600F4A0F4B1A600F4A104B1A601049092001F019FA092001F00AFA0D4B1D6070BDC04600010B40FFFFFBFF0600008056
:4000800004010B40140202401802024008010B40FE00008000000240FE0000C040000240E11600000C020B4010B572B600240FE024486200131959000B00411889881A5A5C
:4000C000C31858880004104300F0B6F80134E4B2012CEDD91B4801000C312C3000F092F8EE221202184B1A6099231B04174A1360174A136080229205164B1A6016490B78A1
:400100003C22934314221343DBB20B70134A117816230B43DBB213700122114B1A600532104B1A60D82212010F4B1A6010220F4B1A600C3A0E4B1A60FFF76EFF00F0A2F888
:4001400010BDC0466C1C00000C00014000500F4030500F4038500F4001700F4000700F40000004400800044008030440180304401804044010B5064C2378002B07D1054B70
:40018000002B02D0044800E000BF0123237010BD4801002000000000681C0000084B10B5002B03D00749084800E000BF07480368002B00D110BD064B002BFBD09847F9E708
:4001C000000000004C010020681C0000C00000200000000010B562B600F0BAF800F060FB002400F01FFB002807D100F0D5F8002000F00AFAC4B200F053FB200001F000F9A7
:40020000EFE7C046F0B50025002711E0BB00C658F3B2FF22964308E06A008A181478A419527822700135013BDBB2002BF4D10137042FEBD9F0BDC04610B50A00002101F03D
:400240000AFD10BD0C4B1B68002803D080221206134301E05B005B08074A1360074B1B68002803D080229204134301E0044A1340024A13607047C04680031A4008010B40D5
:40028000FFFFFFFD10B50120FFF7DCFF10BDC04610B501F0ABFC03680C2B00D1FEE7FEE770B50F4E0F4D13E029686B68AC68002202E001C901C30432A242FAD1E8680022EE
:4002C00002E0002102C304328242FAD11035013E002EE9D101F090FCFFF77CFFFEE7C04601000000681D000010B500230AE0032B03D89A000949505800E009489900094A1A
:40030000885001332F2BF2D9FFF7CEFE8022D205116801230B43136010BDC04600000000910200000000002010B5084B1B78002B06D100F031F900F079F90122034B1A7049
:4003400000F04CF800F060FC10BDC0466401002070B5FFF7E9FF051E02D100F0FFFB0500002D02D100F09CFA0500002D02D00BE0013C00E0074C00F055FA002801D0002C74
:40038000F6D1002C00D1102500F0D4F900F09AF9280070BD404B4C0070B50E4E0025002413E0630904339B000B4A9B581F222240D340DB0707D5300000F062F80500310071
:4003C000200000F0BDF820360134002CE9D0280070BDC046B01C0000A401002070B5002309E012491A1D92008818002444600120404250500133002BF3D00D4C012310E04D
:400400006668A27E094B5B1900211976012A06D12069002803D0F179228B01F01CFC20342B005D1E002BEBD170BDC046A4010020B01C000010B582B004000800130062880B
:4004400069460A80628A01F0D1FA6B461B8863806B469B7823716B46DB7863716B461B79A37102B010BDC04630B50B884A889C1A0025CD800079844200DDCC8030BDC04689
:40048000F0B5574680B482B0824684684568837E0193C76900260023009316E0698A20883A0001F0D0FA320039002800FFF7C2FF0C37019A2100280000F04AF900902100B7
:4004C0002800FFF7D1FF0A34013653461B8B9E42E4D3009802B004BC9246F0BDF0B50A8B8D684F680B69012125E00C00044003D17E88BA79B21802E07A88BE79921BEE884E
:40050000B24201D3002200E00A00A24202D01E78013E1E70A24202D01C78002C07D188431043002A01D1FA7900E001221A7049000A3501336246541EA446002AD5D1F0BD29
:4005400070B504008A7E134B1B181D7E012A04D12800FFF7C3FF050002E0002000F09AFF0C4B1B191D7663091F2214401E3AA240002D07D104339B000649CB1859689143B7
:40058000596006E004339B000249CB1859680A435A6070BDA401002070B5174C44220021200001F058FB154B23808023DB006380134BA38003224323E254413B2377114D55
:4005C00020001E3029002431113201F03BFB2A002C1D01230CE0A168238B04E013784B7201320A310300581E002BF7D120342B005D1E002BEFD170BDA40100204C8DFFFFB7
:40060000B80B0000AC1C000000280BD11F23034001229A404009031D9B000348C3185868104000E000207047A40100200023024AD380024A13607047A4010020780100205D
:40064000FF231940062902D08318002119715300195AC31859808218002313727047C04670B506000D00012305E0220029003000FFF7E6FF23005C1E002BF6D170BDC046E6
:4006800010B54001054B1B188A00511848009A6894466044997EFFF7E3FF10BDB01C000070B505004301064AD3181B8B04E021002800FFF7E5FF23005C1E002BF7D170BD5B
:4006C000B01C000010B5012303E02000FFF7E8FF23005C1E002BF8D110BDC046F8B5050043010D4AD3185E681B8B10E06A010A4B9B189F68A20012195000D96963001B19FD
:400700009A008A18718A385A01F091F923005C1E002BEBD1F8BDC046B01C000010B5012303E02000FFF7DAFF23005C1E002BF8D110BDC04610B5FFF7F1FF10BD9840504368
:4007400080235B009A1A51434018000A7047C046F0B5474680B482B007000E00019201233EE06300985BF3185988884205D3431A321900251572012201E00B1A0022002AE5
:4007800011D17D79AB420ED933191B7A3A7A934205D3220001993000FFF752FF1FE03219013313721BE03D79AB4204D97D79AB4215D8002A13D1FF23019A1340062B0ED09D
:4007C0000902331998461B79194308230122FFF7B5FF020A6300F3185A804346187123005C1E002BBDD1002002B004BC9046F0BD30B5084803680F24A3431900064D2B7843
:400800000F2213400B43E13293432A78A2431343036030BD00FF084062F1FF0F10B5FFF7E7FF10BD024BDB68802018407047C046A401002010B50E4BDB68DB030DD4002868
:400840000DD1430904339B00094A9B581F220240D340DB0705D4012404E0112402E0012400E00024002C01D100F084FC200010BDA401002010B5084BDB68DB0307D4074B16
:400880001B78012B05D100F0D5FB002003E0112001E00120404210BDA40100207C01002010B50C4BDB681B0612D40024012040420BE02000FFF7BEFF002805D10022064BA0
:4008C0005A70FFF7D7FF04E00134002CF1D000E0112010BDA40100207C010020F0B54F464646C0B483B0012809D0022803D000270623994606E005270023994602E0002764
:4009000000239946164C002523E000F047FF01902268136821698B43136060680268A17E884607214646B1408A434946B1400A430260227E390091400B4322681360A268D5
:40094000136861698B431360019800F02BFF1C340135002DD9D003B00CBC90469946F0BDE41C00007047C046084B1A68520052081A601A68120C12040138104318601A6811
:40098000802109060A431A607047C04600000240084B1A68520052081A601A68120C12040138104318601A68802109060A431A607047C046400002404001024B181843686B
:4009C00098897047B01C000042004003801A01238B40013B984205D911028A1A934203D3402002E0C02000E00020C0B27047C04610B50C00FFF7E0FF40002188FFF7E4FF36
:400A0000A07310BDF0B5474680B488B005004301494AD3185C689F68484B197F484801F059F843089846FA26B60018007043454901F050F8B04200D83000434B9C4660440A
:400A4000FA21890001F046F80600C30700D5013601AB4246DA82FA2292001A82C8325A82228A9A822200123204920C2323803749404601F02FF8A0810023A373552128006B
:400A800000F084FC002100239C46002207E07B7A994202D239888C4619000A3701326B012548C318DB7E9A42F1D3637A01AFBB76F976A37ADB00264AD3185B6802930C231F
:400AC0009846A04443460393FA239B0060465843204900F0FFFF3883380000F019FF019001E05B00A381A3899E42FAD81A4B984201D8002600E006265521280000F046FCE1
:400B0000A37ADB00124AD3185B6801A84360637A83764346836000F02BFF208021002800FFF766FF5521280000F030FC304308B004BC9046F0BDC046B01C0000A401002008
:400B4000C05D000038310000E7030000DC050000001D0000FF0F0000880D010070B50024002504E02000FFF74DFF05430134002CF8D0280070BDC04610B5002407E06301AF
:400B8000044AD31859682000FFF732FF0134002CF5D010BDB01C000070B505000E00140000F0FCFD2B685C4034405C402C6000F0F9FD70BD10B50022F02109010248FFF7E0
:400BC000EBFF00F0C5FA10BD1000014010B504000C4B1B78834214D0012B01D1FFF7EAFF012C05D100F03CF90122064B1A7008E0022C06D0042C04D0032C02D00022014B80
:400C00001A7010BD7C01002010B5FFF707FEFFF7B3FF0020FFF762FE00214323044AD1540020FFF7D3FF0120FFF7D0FF002010BDA4010020014A024B1A607047000200019C
:400C400008000840F0B5474680B482B005004301214AD3185A689C68138801279F40013F0A2902D908000A3800E000200A23984688444346642B01D964239846784364217F
:400C800000F028FF060040467843642100F022FF020000270023019313E04B00185B864208D80B00824201D207E00123591E002BF3D104E00623019301E0062301930A3477
:400CC00001376B010449CB181B8B9F42EDD3019802B004BC9046F0BDB01C0000F8B54F464646C0B4070046688468B57AA84601237F200022914608E0B3185B7A994500D28B
:400D00009946984200D9180013005A1E002BF3D100210CE0A3185B7A984200D91800130000E001235A1E002BF4D10A3401313B8B9942F6D34346002B13D0132813D80D49BB
:400D4000EA008A1850686B1EDB00CB18596800F0C1FE4F4647437E2F07D8013DB572012004E0002002E0002000E000200CBC90469946F8BD001D0000F0B55F4656464D4679
:400D8000E0B482B007008A4643689B461B8801229A401300013B019301234AE05B465B195B7A9946BB686A00D05A4C46002208E05919497A8C4202D96800C05A0C000A3374
:400DC0000132F97E8A42F3D364235843019900F081FE64306043514600F07CFE814500D381465B465B194A465A72BC6800261CE06B00185B64235843019900F06BFE6430B6
:400E000063195B7A584353464A465343984203D2631900225A7206E0C01A3230642100F059FE631958720A340136FB7E9E42DFD32B005D1E002BB1D102B01CBC91469A46A6
:400E4000A346F0BD10B5054AC02314689C43204310600800FFF79CFD10BDC046C400002010B50F4B43229A5C4221585C824206D0FFF734FD0A4B4222995C01329954FFF753
:400E8000D9FEC022D200F02109010648FFF784FE054B1B68054A1343054A136010BDC046A401002010000140C40000202008E8810400084070B5837ADB000D4A9C58093061
:400EC000050000F06BFC0B4E32680B4B13400B4A11786D5C0A4A126851184A7A12042A431343234324042343336000F05BFC70BD001D00000800084000FB80FB101D000074
:400F0000E801002010B5054B1B785B01044AD3185B689989987BFFF795FF10BD7F010020B01C0000028801239340013B1B04014A53607047C400002070B500F02FFC0400F7
:400F40001D4B1B681D4A13431D4A13601D4B187FFFF70AFD1C4A13685B005B0813601368802109060B431360184E3568272000F00BFC174B2B40174A13433360F02300E0AA
:400F8000013B154A1268120701D4002BF8D10F4B1D60094D114B2A681343094A13600F2000F06EFA6F2000F0EFFB6A680C4B1A60200000F0F7FB70BDC40000202008E881CC
:400FC00004000840A4010020400002400800084000E8FFBFF0060040100008402018E8810C00084010B5044AD36804490B43D360FFF7A2FF10BDC046A40100208000010019
:4010000070B50400857E067E00F0C8FB23681B680F22B24093431A000423B3401343666832680721A9408A4332602268136000F0B9FB70BDF8B51D4B1B785B011C4AD318C1
:401040005F681C4B43229A5C4221585C824206D0FFF744FC174B4222995C01329954164C00232370114E3378114D5B01EB1899682378DBB29A00D3185A008A180F4B1A60C8
:401080003800FFF717FF33785B0158592278D2B2D3009A1A9300C018094B1860FFF7B0FF084800F0DFF9FFF79DFFF8BD7F010020B01C0000A40100207E010020E80100207B
:4010C000EC010020B918000010B54001054BC058CB00591A8B00C018034B1860FFF790FF10BDC046B01C0000EC010020F8B50400067E857E00F052FB636819680723AB4036
:40110000994327683B680F22B24093433B6043220E4FBA5C002A05D10623AB4019436368196008E0022A06D10332B24013436268116022681360A1680B68647E0122A2407E
:4011400093430B6000F02EFBF8BDC046A401002010B5064B1B78012B06D1054B1868FFF7C5FF0022014B1A7010BDC04680010020EC01002070B5104E4301F3185D68C0B2DD
:401180000E4C20700120FFF721FDFFF7E1FF23785B019A590A4B1A600A4BDA687F218A43DA602178DA680A43DA602800FFF7BAFEFFF7A8FE70BDC046B01C00007F010020D0
:4011C000EC010020A401002070B54301134AD3185D68C9B2124C217099682378DBB29A00D3185A008A180F4B1A60FFF7C3FF2800FFF760FE2378DBB20B49DA00D31A9800B0
:401200000B689C4660440860FFF7FAFE0122074B1A70074800F026F970BDC046B01C00007E010020E8010020EC0100208001002075180000F0B5574680B484B001904301A1
:401240004F4AD3185B689A461D000935012303E0002003AB985413005A1E002BF8D153461A8801239340013B59430800642100F031FC0600002300936BE0019B5B01404A6F
:40128000D3189F68009A9300944663445A00BF18012304E04023AB54B9184B7213005A1E002BF7D1402400990198FFF78DFFFFF799FE344B00E0013B334AD26812060DD5F6
:4012C000002BF8D101330AE05300DB5B9E4203D9A9180B78A3430B70130000E001235A1E002BF1D1640801330FE0A9180B782343DBB20B70B8184372002C05D10B78002B00
:4013000002D101330B70437213005A1E002BECD1002CC8D1013307E003AB9B181878A95C884200D2197013005A1E002BF4D100990198FFF749FFFFF755FE124B00E0013B5B
:40134000114AD268120601D5002BF8D1009B01330093019B5B010A4AD3181B8B009A9A428BD3012305E003AB995C53469B18597213005A1E002BF6D104B004BC9246F0BDAA
:40138000B01C000000A60E00A401002070B504000D004601174BF618174BDB68DB0324D4736800229A7229002000FFF743FF3000FFF794FC0028F6D129003000FFF7DCFC2A
:4013C0002000FFF7D7FEFFF735FE0C4B00E0013B094AD268120601D5002BF8D1002B06D029002000FFF72EFC02E0112000E0102070BDC046B01C0000A401002000366E0101
:40140000044A1368DBB201218B430840184310607047C04600000440014BD8677047C0460000002010B5040000F0B8F9044A13689B009B08A4071C43146000F0B3F910BD92
:401440000CE400E080221202014B1A607047C04600E100E080221202014B1A607047C04680E100E010B50400FFF7F4FF2000FFF7D3FF0320FFF7D6FFFFF7E4FF10BDC046F4
:401480001F2318401E3B8340014A13607047C04600E100E001BE704770B504000D001F2802D90020FFF7F6FF1034A40080239B059C4664442068256070BDC04610B5034B59
:4014C0001B7B584300F060F910BDC046CC000020F0B557464E46C0B483B0040000F05EF90190E71E2D2F74D83F4B1B78DBB29C4208D83E4B1B78DBB29A463D4B1B78DBB214
:40150000994631E03B4B1B78DBB29C4208D83A4B1B78DBB29A46394B1B78DBB2994623E0374B1B78DBB29C4208D8364B1B78DBB29A46354B1B78DBB2994615E0334B1B78E6
:40154000DBB29C4208D8324B1B78DBB29A46314B1B78DBB2994607E02F4B1B78DBB29A462E4B1B78DBB299462D4BDE5D2F2E09D92A2C07D919222B4B1A60052000F004F9EA
:40158000192503E0274B1D683F231D40B54206D9234BDA5D234B1A60052000F0F5F81F4B9C4664442378DBB21F4A13601F4B52461A601F4B4A461A600520FFF77FFFB54277
:4015C0000AD2174BDA5D174B1A60052000F0DCF802E00020FFF75EFF019800F0E3F803B00CBC91469A46F0BDC0F1FF0FC1F1FF0FC2F1FF0FC3F1FF0FC4F1FF0FC5F1FF0F90
:40160000C6F1FF0FC7F1FF0FC8F1FF0FC9F1FF0FCAF1FF0FCBF1FF0FCCF1FF0FCDF1FF0F141D00002CFF0B4028FF0B401CFF0B4020FF0B40034B1868C0231B02184000D087
:401640000120704700010B4010B500F0A7F8044A1368C02109020B43136000F0A3F810BD00010B4010B500F099F808490A68084B1A408024E40122430A600A681340802263
:40168000120213430B6000F08DF810BD00010B40FF3FFFFF70B5050000F080F80400FFF7C9FF002803D0FFF7DDFF012100E0002108482840084A1568084B2B401843106037
:4016C0001368012901D1FFF7BFFF200000F06AF870BDC0460404040010020B40FBFBFBFF10B5244B1B685B0715D5234B1B685B070ED5224BD969042001401F4C22688A43B2
:401700002260DA698243DA611B69002B00D098470420FFF7BFFF174B1B685B0518D5164B1B685B0510D5154BD9698022D2001140114802688A430260D969114A0A40DA61D8
:401740005B69002B00D098478020C000FFF7A2FF084B1B685B030CD5074B1B685B0304D5064B9B69002B00D098478020C002FFF791FF10BD10020B40E000002084010020CD
:40178000FFFBFFFF000000000230800804D0C0460138FDD1C046C046C0467047EFF3108072B6704780F310887047C046044B1A68044B1B78044909685B00D1527047C04608
:4017C000E8010020101D00000C00084070B5224B1A78224952018A1850681B785B01CB181A7E013A1E4B1B78DBB29A421CD91C4C23780133DBB22370174D2B785B01CB1887
:4018000099682378DBB29A00D3185A008A18154B1A60FFF74FFB2878C0B22178C9B2FFF753FCFFF789FB16E000220D4B1A700E4AD1680E4B0B40D3600D4B1B78012B02D1B3
:40184000FFF790F807E0084BDA6880218A43DA601A8901321A8170BD7F010020B01C00007E010020E8010020A4010020FFFFFEFF7D01002010B50122094B1A60FFF796FF75
:40188000084B1B68084A1343084A1360084B1A8901321A81D968074A0A40DA6010BDC04614000840C40000202008E88104000840A40100207FFFFEFF10B50E4B1B785B01CE
:4018C0000D4A9C580D4B1A78D2B2D1008A1A9300E41801220A4B1A60FFF768FF094B1B68094A1343094A13602000FFF7FFFBFFF76DFF10BD7F010020B01C00007E0100204C
:4019000014000840C40000202008E88104000840F7B5FA278368C58A0193038B867EBF005E43C37E04007B43F618019B2800198800F0D0F881B2606800F0CCF8618A704382
:4019400000F0C8F80600208A3900704300F0C2F80649684300F0BEF80123002802D040085B00FAE7019A30001380FEBD00E1F50570B50400FA21438A807E1D04ED1A636839
:401980008900584300F0A6F80100280000F0A2F8A36805001988E08A00F09CF880B26843104900F097F8A38A0A21584300F092F800230D4A216810258A425B410222D31A50
:4019C00062325343984203D9013D4008062DF9D14B236421584300F07DF8E4682080E8B270BDC046A0860100A761000010B50024A34200D00C880388101C9B009BB29A42FC
:401A000000D2181C83B2221C9C4200D2021C93B20A805A08FF2A01D9FF2200E0D2B28A70CA70DB08FF2B00D9FF230B7110BD8B0813800F2393720023C90851809080D0809F
:401A40001081D3727047937A30B594885B00041B9080DBB2002C01DB937202E00133937264420F23957A1D4053889572A34203D9012B03D9013B00E0013353800F2D05D069
:401A8000002D03D053889D00AC4204D90023D0801081D3721DE0D488844201D9D08003E01489844200D21081D07A092802D80130D0720EE01089D488001B80B2834204D90E
:401AC00089088B4203D9013B00E0013353805388138030BD002243088B4274D303098B425FD3030A8B4244D3030B8B4228D3030C8B420DD3FF22090212BA030C8B4202D376
:401B00001212090265D0030B8B4219D300E0090AC30B8B4201D3CB03C01A5241830B8B4201D38B03C01A5241430B8B4201D34B03C01A5241030B8B4201D30B03C01A5241DF
:401B4000C30A8B4201D3CB02C01A5241830A8B4201D38B02C01A5241430A8B4201D34B02C01A5241030A8B4201D30B02C01A5241CDD2C3098B4201D3CB01C01A52418309F4
:401B80008B4201D38B01C01A524143098B4201D34B01C01A524103098B4201D30B01C01A5241C3088B4201D3CB00C01A524183088B4201D38B00C01A524143088B4201D30B
:401BC0004B00C01A5241411A00D20146524110467047FFE701B5002000F006F802BDC0460029F7D076E770477047C046014B18687047C046440100200E4B70B500251E003A
:401C00000D4CE41AA410A54204D0AB00F35898470135F8E700F096F8084B00251E00084CE41AA410A54204D0AB00F35898470135F8E770BD501D0000501D0000501D0000C1
:401C4000581D0000002310B59A4203D0CC5CC4540133F9E710BD03008218934202D019700133FAE7704700000000000000300F40000400400F40000438803E4058045F0196
:401C80001801B4016C407008DC036102A102B448B502D802EC08000004300F4001310F4001330F4003420F4006430F4020000000E41C0000C2010020D6010020000000001F
:401CC000740100200128000001000101680100200C00640028280A031E20000004000000E80300000C00014008030440000304400403044000000F001000000010040C0033
:401D000000000000804F120000040000009F240000000000030405060708090A0B0C0E0F101112131415161718191B1C1D1E1F2021222325262728292A2B2E2F3031323374
:401D400034354300F8B5C046F8BC08BC9E4670479D010000E9020000F8B5C046F8BC08BC9E46704775010000781D0000C000002088000000A8000000000000000008C001BE
:401D80000000FF0F010000000000E02EC05D00001800000000366E01040404000000000000000000000000000000000000000000000000000000000000000000421D0000C1
:401DC000000000000000000000000000000000000000000000000000000000000000000000000000000000000000000000000000000000000000000000000000E4000020DF
:401E000000000000000000000000000000000000000000000000000000000000000000000000000000000000000000000000000000000000000000000000000000000000A2
:401E40000000000000000000000000000000000000000000000000000000000000000000000000000000000000000000000000000000000000000000000000000000000062
:401E80000000000000000000000000000000000000000000000000000000000000000000000000000000000000000000000000000000000000000000000000000000000022
:401EC00000000000000000000000000000000000000000000000000000000000000000000000000000000000000000000000000000000000000000000000000000000000E2
:0200000490303A
:0200000022EDEF
:0200000490402A
:200000000000000000000000000000000000000000000000000000000000000000000000E0
:0200000490501A
:0C000000000204C81193110104D23480E6
:0200000490600A
:0100000001FE
:00000001FF